{
  "_format": "hh-sol-artifact-1",
  "contractName": "StudentPortal",
  "sourceName": "contracts/Lock.sol",
  "abi": [
    {
      "inputs": [],
      "stateMutability": "nonpayable",
      "type": "constructor"
    },
    {
      "anonymous": false,
      "inputs": [
        {
          "indexed": true,
          "internalType": "string",
          "name": "_name",
          "type": "string"
        }
      ],
      "name": "ReturnedStudentId",
      "type": "event"
    },
    {
      "anonymous": false,
      "inputs": [
        {
          "indexed": true,
          "internalType": "uint256",
          "name": "id",
          "type": "uint256"
        },
        {
          "indexed": true,
          "internalType": "string",
          "name": "_name",
          "type": "string"
        },
        {
          "indexed": true,
          "internalType": "string",
          "name": "_country",
          "type": "string"
        }
      ],
      "name": "StudentRegisterd",
      "type": "event"
    },
    {
      "inputs": [],
      "name": "getAllStudents",
      "outputs": [
        {
          "components": [
            {
              "internalType": "uint256",
              "name": "id",
              "type": "uint256"
            },
            {
              "internalType": "string",
              "name": "name",
              "type": "string"
            },
            {
              "internalType": "string",
              "name": "email",
              "type": "string"
            },
            {
              "internalType": "string",
              "name": "birthday",
              "type": "string"
            },
            {
              "internalType": "string",
              "name": "lga",
              "type": "string"
            },
            {
              "internalType": "string",
              "name": "country",
              "type": "string"
            },
            {
              "internalType": "string",
              "name": "state",
              "type": "string"
            },
            {
              "internalType": "bool",
              "name": "isRegistered",
              "type": "bool"
            }
          ],
          "internalType": "struct StudentPortal.StudentRecord[]",
          "name": "",
          "type": "tuple[]"
        }
      ],
      "stateMutability": "view",
      "type": "function"
    },
    {
      "inputs": [
        {
          "internalType": "uint256",
          "name": "_id",
          "type": "uint256"
        }
      ],
      "name": "getStudent",
      "outputs": [
        {
          "components": [
            {
              "internalType": "uint256",
              "name": "id",
              "type": "uint256"
            },
            {
              "internalType": "string",
              "name": "name",
              "type": "string"
            },
            {
              "internalType": "string",
              "name": "email",
              "type": "string"
            },
            {
              "internalType": "string",
              "name": "birthday",
              "type": "string"
            },
            {
              "internalType": "string",
              "name": "lga",
              "type": "string"
            },
            {
              "internalType": "string",
              "name": "country",
              "type": "string"
            },
            {
              "internalType": "string",
              "name": "state",
              "type": "string"
            },
            {
              "internalType": "bool",
              "name": "isRegistered",
              "type": "bool"
            }
          ],
          "internalType": "struct StudentPortal.StudentRecord",
          "name": "",
          "type": "tuple"
        }
      ],
      "stateMutability": "view",
      "type": "function"
    },
    {
      "inputs": [
        {
          "internalType": "string",
          "name": "_name",
          "type": "string"
        },
        {
          "internalType": "string",
          "name": "_email",
          "type": "string"
        },
        {
          "internalType": "string",
          "name": "_birthday",
          "type": "string"
        },
        {
          "internalType": "string",
          "name": "_lga",
          "type": "string"
        },
        {
          "internalType": "string",
          "name": "_country",
          "type": "string"
        },
        {
          "internalType": "string",
          "name": "_state",
          "type": "string"
        }
      ],
      "name": "registerStudent",
      "outputs": [],
      "stateMutability": "nonpayable",
      "type": "function"
    },
    {
      "inputs": [
        {
          "internalType": "uint256",
          "name": "_id",
          "type": "uint256"
        }
      ],
      "name": "removeStudent",
      "outputs": [],
      "stateMutability": "nonpayable",
      "type": "function"
    }
  ],
  "bytecode": "0x608060405234801561001057600080fd5b50336000806101000a81548173ffffffffffffffffffffffffffffffffffffffff021916908373ffffffffffffffffffffffffffffffffffffffff16021790555061182d806100606000396000f3fe608060405234801561001057600080fd5b506004361061004c5760003560e01c8063642f9163146100515780636af8384514610081578063c082972a1461009d578063e9e30927146100b9575b600080fd5b61006b60048036038101906100669190610cf4565b6100d7565b6040516100789190610eae565b60405180910390f35b61009b60048036038101906100969190610cf4565b6104ed565b005b6100b760048036038101906100b29190611005565b61067f565b005b6100c1610815565b6040516100ce91906112cf565b60405180910390f35b6100df610c06565b600280549050821115610127576040517f08c379a000000000000000000000000000000000000000000000000000000000815260040161011e9061134e565b60405180910390fd5b6002828154811061013b5761013a61136e565b5b9060005260206000209060080201604051806101000160405290816000820154815260200160018201805461016f906113cc565b80601f016020809104026020016040519081016040528092919081815260200182805461019b906113cc565b80156101e85780601f106101bd576101008083540402835291602001916101e8565b820191906000526020600020905b8154815290600101906020018083116101cb57829003601f168201915b50505050508152602001600282018054610201906113cc565b80601f016020809104026020016040519081016040528092919081815260200182805461022d906113cc565b801561027a5780601f1061024f5761010080835404028352916020019161027a565b820191906000526020600020905b81548152906001019060200180831161025d57829003601f168201915b50505050508152602001600382018054610293906113cc565b80601f01602080910402602001604051908101604052809291908181526020018280546102bf906113cc565b801561030c5780601f106102e15761010080835404028352916020019161030c565b820191906000526020600020905b8154815290600101906020018083116102ef57829003601f168201915b50505050508152602001600482018054610325906113cc565b80601f0160208091040260200160405190810160405280929190818152602001828054610351906113cc565b801561039e5780601f106103735761010080835404028352916020019161039e565b820191906000526020600020905b81548152906001019060200180831161038157829003601f168201915b505050505081526020016005820180546103b7906113cc565b80601f01602080910402602001604051908101604052809291908181526020018280546103e3906113cc565b80156104305780601f1061040557610100808354040283529160200191610430565b820191906000526020600020905b81548152906001019060200180831161041357829003601f168201915b50505050508152602001600682018054610449906113cc565b80601f0160208091040260200160405190810160405280929190818152602001828054610475906113cc565b80156104c25780601f10610497576101008083540402835291602001916104c2565b820191906000526020600020905b8154815290600101906020018083116104a557829003601f168201915b505050505081526020016007820160009054906101000a900460ff1615151515815250509050919050565b3373ffffffffffffffffffffffffffffffffffffffff1660008054906101000a900473ffffffffffffffffffffffffffffffffffffffff1673ffffffffffffffffffffffffffffffffffffffff161461057b576040517f08c379a00000000000000000000000000000000000000000000000000000000081526004016105729061146f565b60405180910390fd5b6002805490508111156105c3576040517f08c379a00000000000000000000000000000000000000000000000000000000081526004016105ba9061134e565b60405180910390fd5b600281815481106105d7576105d661136e565b5b90600052602060002090600802016000808201600090556001820160006105fe9190610c4d565b60028201600061060e9190610c4d565b60038201600061061e9190610c4d565b60048201600061062e9190610c4d565b60058201600061063e9190610c4d565b60068201600061064e9190610c4d565b6007820160006101000a81549060ff02191690555050600160028054905061067691906114be565b60018190555050565b6000600160028054905061069391906114f2565b90506000604051806101000160405280838152602001898152602001888152602001878152602001868152602001858152602001848152602001600015158152509050600281908060018154018082558091505060019003906000526020600020906008020160009091909190915060008201518160000155602082015181600101908161072191906116d2565b50604082015181600201908161073791906116d2565b50606082015181600301908161074d91906116d2565b50608082015181600401908161076391906116d2565b5060a082015181600501908161077991906116d2565b5060c082015181600601908161078f91906116d2565b5060e08201518160070160006101000a81548160ff0219169083151502179055505050836040516107c091906117e0565b6040518091039020886040516107d691906117e0565b6040518091039020837ffed94bc9bb2b6f10adb2c66c30dfef760458c12db27eb5b6e358b0bd6e057f0960405160405180910390a45050505050505050565b60606002805480602002602001604051908101604052809291908181526020016000905b82821015610bfd57838290600052602060002090600802016040518061010001604052908160008201548152602001600182018054610877906113cc565b80601f01602080910402602001604051908101604052809291908181526020018280546108a3906113cc565b80156108f05780601f106108c5576101008083540402835291602001916108f0565b820191906000526020600020905b8154815290600101906020018083116108d357829003601f168201915b50505050508152602001600282018054610909906113cc565b80601f0160208091040260200160405190810160405280929190818152602001828054610935906113cc565b80156109825780601f1061095757610100808354040283529160200191610982565b820191906000526020600020905b81548152906001019060200180831161096557829003601f168201915b5050505050815260200160038201805461099b906113cc565b80601f01602080910402602001604051908101604052809291908181526020018280546109c7906113cc565b8015610a145780601f106109e957610100808354040283529160200191610a14565b820191906000526020600020905b8154815290600101906020018083116109f757829003601f168201915b50505050508152602001600482018054610a2d906113cc565b80601f0160208091040260200160405190810160405280929190818152602001828054610a59906113cc565b8015610aa65780601f10610a7b57610100808354040283529160200191610aa6565b820191906000526020600020905b815481529060010190602001808311610a8957829003601f168201915b50505050508152602001600582018054610abf906113cc565b80601f0160208091040260200160405190810160405280929190818152602001828054610aeb906113cc565b8015610b385780601f10610b0d57610100808354040283529160200191610b38565b820191906000526020600020905b815481529060010190602001808311610b1b57829003601f168201915b50505050508152602001600682018054610b51906113cc565b80601f0160208091040260200160405190810160405280929190818152602001828054610b7d906113cc565b8015610bca5780601f10610b9f57610100808354040283529160200191610bca565b820191906000526020600020905b815481529060010190602001808311610bad57829003601f168201915b505050505081526020016007820160009054906101000a900460ff16151515158152505081526020019060010190610839565b50505050905090565b604051806101000160405280600081526020016060815260200160608152602001606081526020016060815260200160608152602001606081526020016000151581525090565b508054610c59906113cc565b6000825580601f10610c6b5750610c8a565b601f016020900490600052602060002090810190610c899190610c8d565b5b50565b5b80821115610ca6576000816000905550600101610c8e565b5090565b6000604051905090565b600080fd5b600080fd5b6000819050919050565b610cd181610cbe565b8114610cdc57600080fd5b50565b600081359050610cee81610cc8565b92915050565b600060208284031215610d0a57610d09610cb4565b5b6000610d1884828501610cdf565b91505092915050565b610d2a81610cbe565b82525050565b600081519050919050565b600082825260208201905092915050565b60005b83811015610d6a578082015181840152602081019050610d4f565b60008484015250505050565b6000601f19601f8301169050919050565b6000610d9282610d30565b610d9c8185610d3b565b9350610dac818560208601610d4c565b610db581610d76565b840191505092915050565b60008115159050919050565b610dd581610dc0565b82525050565b600061010083016000830151610df46000860182610d21565b5060208301518482036020860152610e0c8282610d87565b91505060408301518482036040860152610e268282610d87565b91505060608301518482036060860152610e408282610d87565b91505060808301518482036080860152610e5a8282610d87565b91505060a083015184820360a0860152610e748282610d87565b91505060c083015184820360c0860152610e8e8282610d87565b91505060e0830151610ea360e0860182610dcc565b508091505092915050565b60006020820190508181036000830152610ec88184610ddb565b905092915050565b600080fd5b600080fd5b7f4e487b7100000000000000000000000000000000000000000000000000000000600052604160045260246000fd5b610f1282610d76565b810181811067ffffffffffffffff82111715610f3157610f30610eda565b5b80604052505050565b6000610f44610caa565b9050610f508282610f09565b919050565b600067ffffffffffffffff821115610f7057610f6f610eda565b5b610f7982610d76565b9050602081019050919050565b82818337600083830152505050565b6000610fa8610fa384610f55565b610f3a565b905082815260208101848484011115610fc457610fc3610ed5565b5b610fcf848285610f86565b509392505050565b600082601f830112610fec57610feb610ed0565b5b8135610ffc848260208601610f95565b91505092915050565b60008060008060008060c0878903121561102257611021610cb4565b5b600087013567ffffffffffffffff8111156110405761103f610cb9565b5b61104c89828a01610fd7565b965050602087013567ffffffffffffffff81111561106d5761106c610cb9565b5b61107989828a01610fd7565b955050604087013567ffffffffffffffff81111561109a57611099610cb9565b5b6110a689828a01610fd7565b945050606087013567ffffffffffffffff8111156110c7576110c6610cb9565b5b6110d389828a01610fd7565b935050608087013567ffffffffffffffff8111156110f4576110f3610cb9565b5b61110089828a01610fd7565b92505060a087013567ffffffffffffffff81111561112157611120610cb9565b5b61112d89828a01610fd7565b9150509295509295509295565b600081519050919050565b600082825260208201905092915050565b6000819050602082019050919050565b60006101008301600083015161117f6000860182610d21565b50602083015184820360208601526111978282610d87565b915050604083015184820360408601526111b18282610d87565b915050606083015184820360608601526111cb8282610d87565b915050608083015184820360808601526111e58282610d87565b91505060a083015184820360a08601526111ff8282610d87565b91505060c083015184820360c08601526112198282610d87565b91505060e083015161122e60e0860182610dcc565b508091505092915050565b60006112458383611166565b905092915050565b6000602082019050919050565b60006112658261113a565b61126f8185611145565b93508360208202850161128185611156565b8060005b858110156112bd578484038952815161129e8582611239565b94506112a98361124d565b925060208a01995050600181019050611285565b50829750879550505050505092915050565b600060208201905081810360008301526112e9818461125a565b905092915050565b600082825260208201905092915050565b7f4964206e6f7420617661696c61626c6500000000000000000000000000000000600082015250565b60006113386010836112f1565b915061134382611302565b602082019050919050565b600060208201905081810360008301526113678161132b565b9050919050565b7f4e487b7100000000000000000000000000000000000000000000000000000000600052603260045260246000fd5b7f4e487b7100000000000000000000000000000000000000000000000000000000600052602260045260246000fd5b600060028204905060018216806113e457607f821691505b6020821081036113f7576113f661139d565b5b50919050565b7f596f7520646f6e27742068617665207468652070726976696c6564676520726960008201527f67687420666f722074686973206f7065726174696f6e00000000000000000000602082015250565b60006114596036836112f1565b9150611464826113fd565b604082019050919050565b600060208201905081810360008301526114888161144c565b9050919050565b7f4e487b7100000000000000000000000000000000000000000000000000000000600052601160045260246000fd5b60006114c982610cbe565b91506114d483610cbe565b92508282039050818111156114ec576114eb61148f565b5b92915050565b60006114fd82610cbe565b915061150883610cbe565b92508282019050808211156115205761151f61148f565b5b92915050565b60008190508160005260206000209050919050565b60006020601f8301049050919050565b600082821b905092915050565b6000600883026115887fffffffffffffffffffffffffffffffffffffffffffffffffffffffffffffffff8261154b565b611592868361154b565b95508019841693508086168417925050509392505050565b6000819050919050565b60006115cf6115ca6115c584610cbe565b6115aa565b610cbe565b9050919050565b6000819050919050565b6115e9836115b4565b6115fd6115f5826115d6565b848454611558565b825550505050565b600090565b611612611605565b61161d8184846115e0565b505050565b5b818110156116415761163660008261160a565b600181019050611623565b5050565b601f8211156116865761165781611526565b6116608461153b565b8101602085101561166f578190505b61168361167b8561153b565b830182611622565b50505b505050565b600082821c905092915050565b60006116a96000198460080261168b565b1980831691505092915050565b60006116c28383611698565b9150826002028217905092915050565b6116db82610d30565b67ffffffffffffffff8111156116f4576116f3610eda565b5b6116fe82546113cc565b611709828285611645565b600060209050601f83116001811461173c576000841561172a578287015190505b61173485826116b6565b86555061179c565b601f19841661174a86611526565b60005b828110156117725784890151825560018201915060208501945060208101905061174d565b8683101561178f578489015161178b601f891682611698565b8355505b6001600288020188555050505b505050505050565b600081905092915050565b60006117ba82610d30565b6117c481856117a4565b93506117d4818560208601610d4c565b80840191505092915050565b60006117ec82846117af565b91508190509291505056fea2646970667358221220893f9beaf0836d481065f7571b92c892744d3e3140b67dd943d00c8fa3a4eef864736f6c63430008140033",
  "linkReferences": {},
  "deployedLinkReferences": {}
}